S018000050726F6A6563745F7269766574696E672E737265636E
S113000012C021C020C01FC01EC01DC01CC01BC008
S11300101AC073C018C088C016C092C014C013C0E0
S113002012C011C010C011241FBECFE5D4E0DEBF42
S1130030CDBF20E0A0E6B0E001C01D92A436B20717
S1130040E1F72DD0ECC0DCCF93B321E030E0082EF3
S113005001C0220F0A94EAF7922389F4EFE3FCE942
S11300603197F1F700C0000023B330E002C03595AA
S113007027958A95E2F720FD02C081E0089508954E
S11300808AB188618AB980B5866880BD84E380BD01
S11300908FE089B98AB1806C8AB9789408958FEF1A
S11300A081BB14BA89B7816089BF789483B78560AE
S11300B083BFE6DF00E010E0C0E0D0E0F12C84E68E
S11300C0E82E80E090E0C0DF882369F012BEC09182
S11300D06200D0916300F394F0FC05C000916200CB
S11300E010916300F12CECB84AE050E060E670E057
S11300F0C8018C1B9D0B50D0E4CF1F920F920FB6FA
S11301000F9211248F939F938091620090916300CA
S1130110019690936300809362009F918F910F905A
S11301200FBE0F901F9018951F920F920FB60F924B
S11301301124F89478940F900FBE0F901F90189587
S11301401F920F920FB60F9211242F938F939F93A8
S1130150EF93FF938091600090916100FC01E05A5D
S1130160FF4F20812CB90196909361008093600029
S11301708091600090916100049724F010926100D6
S113018010926000FF91EF919F918F912F910F90AA
S11301900FBE0F901F901895FB019F01E894423009
S11301A0BCF04532ACF44A3029F497FB1EF4909528
S11301B081959F4F642F77271ED0805D8A330CF082
S11301C0895D8193CB010097A9F716F45DE2519301
S11301D01082C90100C0DC01FC01672F71917723F3
S11301E0E1F7329704C07C916D9370836291AE17EE
S11301F0BF07C8F30895AA1BBB1B51E107C0AA1F80
S1130200BB1FA617B70710F0A61BB70B881F991FB3
S11302105A95A9F780959095BC01CD010895F8945D
S1050220FFCF0A
S9030000FC
